:03000000020E529B
:0C0E5200787FE4F6D8FD75815A0209D6BD
:100D0E00563A20202020202020202020004D4F4425
:100D1E00453A2020202020202000302D345620005F
:100D2E00342D38562000382D32305600252E31669F
:030D3E002056003C
:100D8A00D3EF9400EE940040167DC8EDD39400741E
:0F0D9A0080948040031D80F3EF1F70E41E80E102
:010DA9002227
:100E2300D3EF9400EE94004007EF1F70F31E80F0A1
:010E3300229C
:100C3A00E4FEFDFCC291D29000C29200D29100EF74
:100C4A00700EC291D29000D29100C291C290800CD3
:100C5A00C291D29000D29100C291D29000D291005A
:100C6A00C291D290E4FFEFC3940874809480501527
:100C7A0000ED25E0FDD29100C291309005430501B7
:100C8A0080000F80E1E4FFEFC394087480948050E1
:100C9A0015ECC313FC309005430480800000D29108
:100CAA0000C2910F80E1EDB50402AE0400D292D2E7
:050CBA0090D291AF068D
:010CBF002212
:0E0E4400EF1FAC0670011E4C60030080F3220D
:020DC900AD0774
:100DCB00E4FBFA7F14FE120E44AF05120C3AAB078C
:0B0DDB007F907E01120E447E00AF03EB
:010DE60022EA
:1009D600E4F525F524F523F522F529F528F527F57F
:1009E60026F52AF52BF52CF52DF52EF52F753080ED
:1009F600F531F535F534F533F532F53CF53D753E13
:100A060002120DFD7FC87E00120D8A7BFF7A0D79DA
:100A16000EE4FDFF120D687BFF7A0D791B7D01E464
:100A2600FF120D68E52C706FE52D146029146047E0
:100A360024027063E4F535F5347533807532407BF6
:100A4600FF7A0D79287D017F07120D68E5A0440F16
:100A560054FEF5A08041E4F535F534F533753241A1
:100A66007BFF7A0D792E7D017F07120D68E5A04484
:100A76000F54FDF5A08020E4F535F5347533A075E7
:100A860032417BFF7A0D79347D017F07120D68E5CF
:100A9600A0440F54FBF5A030B203020BECE5A054C2
:100AA600F0F5302440600F24E0601324607015E4F4
:100AB600F52EF52F800E752E00752F018006752EEA
:100AC60000752F02E52F452E700DE52D452C70077C
:100AD600753101C2B5803CE52F6401452E700FE5E6
:100AE6002D6401452C7007753101C2B68025E52FAE
:100AF6006402452E700FE52D6402452C7007753192
:100B060001C2B7800EE4F531F529F528F527F5265B
:100B1600753C01AF31EF3395E0FEEF64014E706630
:100B2600F53CF531FF120DC9AC06AD07E41201AE76
:100B36008F258E248D238C22E4FBFA797F7843124D
:100B4600010CE4FBFA79A078401200038F298E2865
:100B56008D278C2620B609E4FBFA7920784180128D
:100B660020B71AAF29AE28AD27AC26E4FBFA79C820
:100B760078421200038F298E288D278C26E4F525CE
:100B8600F524F523F5227542FF75430D75443A8524
:100B960029488528478527468526457B007A00799A
:100BA600361205C37B007A007936E4FD7F05120D07
:100BB60068053DE53E75F00AA4FFD3E53D9FE5F0E7
:100BC6006480F87480984005E53E04F53DE53D8572
:100BD6003EF084E5F06003020A9DE53C7003020ADC
:100BE6009DB293020A9D20B00F7F2C7E01120D8AC2
:100BF600052DE52D7002052C20B10F7F2C7E0112EC
:100C06000D8AE52D152D7002152CC3E52C648094F4
:100C1600805009752C00752D02020A2AD3E52D9401
:100C260002E52C648094805003020A2AE4F52CF530
:040C36002D020A2A57
:100DAA007580FFC294D295D296AF80C2960542E56D
:0E0DBA0042D39432748094805004EF20E7E915
:010DC8002208
:100E3400AE07120DAAC294C2958E80D296C2962293
:060DE70014F91204CBFF19
:100DED00AE07120DAAD294C2958E80D296C29622CB
:100DFD007F38120E347F0C120E347F06120E347FA4
:040E0D0001020E349C
:100E1100AE07ED6005EE24C08001EE4480FF120EA6
:020E2100342279
:100D68008B3F8A408941120E11AB3FAA40A941121C
:100D780004CB600D0541E54170020540120DE78086
:020D8800E8225F
:060CC0008F088D098B0A6C
:100CC600E4FDEDC39408748094805030E50A244016
:100CD600FFE433FEED2403FCEFA804088006CEA251
:100CE600E713CE13D8F8FF120E34AB0B050DE50D46
:100CF600AA0C7002050C120DE70D80C6AD09AF08EF
:080D0600120E11AF0A020DEDFF
:10000300EC4D6011E8497017ED33EC3304600DE4F7
:10001300FCFFFEFD22E933E8330470F802021C12F0
:1000230001E758046009E4CC2481500628500902F2
:100033000226284003020223C0E0EB4A7044B98041
:1000430006D0E0FB020212EF4E701CBD8008EBFFEE
:10005300EAFEE9FD80EBE98DF0A4FEE5F00200EC99
:10006300E9CDF9EAFEEBFFEF89F0A4FCE5F0CE89D8
:10007300F0A42EFFE435F0CD89F0A42DFEE435F095
:100083008067EF4E7005BD80D780C3EF8BF0A4ACC3
:10009300F0EE8BF0A42CFCE435F0F8EF8AF0A42CFE
:1000A300E5F038FCE433CB8DF0A42CFCE5F03BF811
:1000B300EE8AF0A42CFCE5F038F8E433CF89F0A401
:1000C3002CFCE5F038CF3400CE89F0A42FFFE5F007
:1000D3003EFEE433C98DF0A42EFEE5F039CD8AF05F
:1000E300A42FFFE5F03EFEE43DFD33D0E0FB5007D7
:1000F3000BBB000F020226EC2CFCEF33FFEE33FEAA
:06010300ED33FD0201FED8
:10010900020226EC5D046005E85904700302021C32
:100119001201E7580460F6EC4860F2EC7004FDFE49
:10012900FF22C860DB2481C85009C39860025006C9
:100139000202239850CAF582E9294B4A7005AB821D
:1001490002021275F0007C1A7880C3EF9BEE9AEDDB
:1001590099400DC3EF9BFFEE9AFEED99FDE842F041
:10016900DC23ACF0D0E0FFD0E0FED0E0FDAB822094
:10017900E7101BEB60BAEC2CFCEF33FFEE33FEED1E
:1001890033FD0201FEE803F830E705C0F075F00021
:10019900EF2FFFEE33FEED33FD40B830E7C280AA02
:1001A90075F020800E75F010800575F0087D007ED1
:1001B900007F003392D530D503120523EC3340106C
:1001C900EF33FFEE33FEED33FDEC33FCD5F0ED22DA
:0E01D900E5F0247EA2D513CC92E7CDCEFF2216
:10056700E5562442F8E6055622783F3007027842DE
:10057700E475F0011205310204CB2000EB7F2ED287
:10058700008018EF540F2490D43440D4FF30040B6C
:10059700EF24BFB41A0050032461FFE5576002152A
:1005A70057055AE55A7002055930070D783FE4752B
:1005B700F001120531EF020511020D417403D20754
:1005C7008003E4C207F5568B3F8A408941E4F5571B
:1005D700F559F55AE55760077F201205A280F57592
:1005E70058FFC201C200C202C203C205C206C20846
:1005F700120570FF700D3007057F001205B3AF5A63
:10060700AE5922B4255FC2D5C204120570FF24D0AB
:10061700B40A00501A75F00A785730D50508B6FFA6
:100627000106C6A426F620D5047002D20380D92479
:10063700CFB41A00EF5004C2E5D2040208A0D201D9
:1006470080C6D20080C0D20280BCD2D580BAD20583
:1006570080B47F201205A22002077401B55700401D
:10066700F1120567FF1205A20205DBD208D2068048
:1006770095120567FB120567FA120567F94A4B7071
:100687000679977A097BFF20022EE557602A7E00BC
:100697008E827583001204E460060EEE655870F0D2
:1006A700C2D5EBC0E0EAC0E0E9C0E0EE120900D035
:1006B700E0F9D0E0FAD0E0FB1204CBFF60AAEBC070
:1006C700E0EAC0E0E9C0E01205A2D0E02401F9D0D9
:1006D700E03400FAD0E0FBE5580460DCD558D98057
:1006E70087D20280A21208E360F7E558700104126E
:1006F7000231A958600DE558600914F55812098AA6
:10070700EF60F3EA30E702F404C3995077EAF4257F
:10071700580430E701E404F558800D1208E360C17E
:10072700EA05582558120231EA7855F630E701E410
:10073700255804D5580420050114120900E4C0E027
:1007470012098A7855E6601320E70714F612058A1E
:10075700802204F6D0E014C0E07F0012058AE55835
:1007670060071205811558800B300503120581D0EB
:10077700E00205DBD0E00480C51208E360A0E5587D
:10078700041202317855EAF6E558200502600104A3
:0507970024041209001A
:10079C0074FF04C0E012098A12058AE5582005028C
:1007AC006003120581D0E0B558E87F4512059478B6
:1007BC0055E67F2B30E7047F2DF404C0E01205A230
:1007CC00D0E075F00A84C0F012058BD0E012058BD6
:1007DC000205DB791080027908C206C2088008D2B3
:1007EC00D5790A8004790AC2D5E558047002F55807
:1007FC00E4FAFDFEFF120567FC7B082001131205CD
:10080C0067FD7B1030000A120567FE120567FF7B3F
:10081C0020EC3382D592D55013C3E43000069FFFF1
:10082C00E49EFEE42001039DFDE49CFCE4CBF8C2B5
:10083C0001EC700CCFCECDCCE824F8F870F3801717
:10084C00C3EF33FFEE33FEED33FDEC33FCEB33FB48
:10085C00994002FB0FD8E9EB300105F8D0E0C44811
:10086C00B201C0E00AEC4D4E4F78207B0070C2EA1A
:10087C00B5580040BCC0E0120902D0F0D0E0200115
:10088C0004C4C0E0C4B201C0F012058BD0F0D5F0A6
:10089C00EB0205DB12054106785307DF5806494C7D
:1008AC0006454207E34F07EB4407EB49065E430757
:1008BC00F15507224607804506EC4709B750064D0F
:1008CC002D06512E06742B06552306722009A02ADC
:1008DC00060D480000066CE558B4FF037558061267
:1008EC000567FC120567FD120567FE120567FF78A8
:1008FC004E020260790AA2D5200314300509B91002
:10090C00020404B9080104A2D520060250010420F7
:10091C0002689202B557005034C0E07F20300319B2
:10092C007F30A20272067205500F120959C202C220
:10093C0006C205C2087F30800F300503E9C0E01203
:10094C0005A2300503D0E0F9D0E0B557CC3005173F
:10095C007F30B9100C1205A27F583004077F7880C5
:10096C0003B908031205A23002057F2D0205A27FF0
:10097C00202008F87F2B2006F322920280CF7F00E4
:10098C00B407005005244EF8E6FF22286E756C6CF7
:10099C002900D2011205673001F8C201785730D511
:1009AC000108F602060D2D50434958120567240321
:1009BC00B405004001E49009B293120593743A1205
:0A09CC000593D2037557040207DFFC
:1001E700E9D2E7C933E833F892D5EDD2E7CD33EC5E
:0701F70033FC5002B2D522D7
:1001FE00EC30E7100FBF000C0EBE00080DBD000462
:10020E000BEB6014A2D5EB13FCED92E7FD2274FF0D
:10021E00FCFDFEFF22E480F8A2D574FF13FC7D8066
:03022E00E480EF7A
:10023100F920E72824F950037907E4F42402FB1894
:10024100DBFDE624FB5014E9600DE4F618E604F644
:0F025100B40A08E4F6D9F57401F60A22C2D522E0
:10026000ED33EC3392D5FA602AB4FF33EDC2E77B6D
:10027000FF60067A027985E4227A02798E20D5041D
:100280007A027989224E614E002B494E46002D4953
:100290004E4600E47A08F608DAFC7B00740722E890
:1002A000C0E0ECC0E0EDC0E0EEC0E0EFC0E0EA7519
:1002B000F010A4CAABF075F04DA42BFBE435F0FCB4
:1002C000EA2410FAEB34C5FBEC34D9FCEDC2E7FFAD
:1002D00075F056A4F42411C5F0F434C58FF0A42AA7
:1002E000E5F03BE43CF620E71412048BD0E0FFD0AD
:1002F000E0FED0E0FDD0E0FC12010C8014F404120A
:10030000048BD0E0FFD0E0FED0E0FDD0E0FC120096
:1003100003D0E0F8E6FAEDD2E7CD33EC332482FBEC
:10032000E4C3CF33CFCE33CECD33CD33DBF37B0736
:1003300075F00A846004F6081B0AE5F0F6088FF0F1
:10034000740AA4FFACF08EF0740AA42CFEACF0503A
:10035000010C8DF0740AA42CFDE435F0F608DBDE08
:03036000740722FD
:1003630002021CE86480F8E933E83360110460F0AA
:10037300ED33EC337009E8FCE9FDEAFEEBFF220400
:1003830060DED3EB9FEA9EE99DE8C2E78CF0C2F7FB
:1003930095F0400CE8CCF8E9CDF9EACEFAEBCFFBC7
:1003A3001201E785D0F05804700320D5B3E8047038
:1003B300075002B2D502022692D5EC0460F7E4CCD2
:1003C300C0E0C398F8603B94186008400DD0E0FB90
:1003D3000201FEE4FBFAC9FC8028E830E406E4C924
:1003E300FBE4CAFCE830E305E4C9CACBFCE85407E4
:1003F3006010F8C3E913F9EA13FAEB13FBEC13FCEF
:10040300D8F130F52FC3E49CFCEF9BFFEE9AFEED91
:1004130099FDD0E0FBEF4E4D4C701222DB0302023C
:1004230023EC2CFCEF33FFEE33FEED33FDED30E731
:10043300EB0201FEEF2BFFEE3AFEED39FDD0E0FBC0
:1004430050130BBB0003020226ED13FDEE13FEEF68
:0804530013FFEC13FC0201FE93
:10045B003F8000004120000042C80000447A0000A9
:10046B00461C400047C35000497424004B1896802B
:10047B004CBEBC205A0E1BCA6753C21C749DC5AE22
:10048B00FB60065407601C23231204B9EB5438603D
:10049B00091204A51204B4120003ECF8EDF9EEFAFC
:1004AB00EFCB22EB1204B480F1543803241C9004DC
:1004BB005BFE93FC0EEE93FD0EEE930ECE93FF229E
:1004CB00BB010689828A83E0225002E722BBFE022F
:0904DB00E32289828A83E4932262
:1004E400BB010CE58229F582E5833AF583E02250CD
:1004F40006E92582F8E622BBFE06E92582F8E22217
:0D050400E58229F582E5833AF583E4932230
:10051100BB010689828A83F0225002F722BBFE01C9
:02052100F322C3
:0E052300C3E49FFFE49EFEE49DFDE49CFC22E9
:10053100FAE6FB0808E6F925F0F618E6CA3AF622CB
:10054100D083D082F8E4937012740193700DA3A349
:1005510093F8740193F5828883E47374029368605D
:06056100EFA3A3A380DF5D
:100D4100EFB40A07740D120D4C740A309811A8996A
:100D5100B8130CC2983098FDA899C298B811F63012
:070D610099FDC299F59922EA
:00000001FF
